:100000000C9495010C94C6010C94C6010C94C60185
:100010000C94C6010C94C6010C94C6010C94C60144
:100020000C94C6010C94C6010C94C6010C94C60134
:100030000C94C6010C94C6010C94C6010C94C60124
:100040000C94C6010C94C6010C94C6010C94C60114
:100050000C94C6010C94C6010C94C6010C94991022
:100060000C94C6010C940D110C94E3100C94C60171
:100070000C94C6010C94C6010C94C6010C94C601E4
:100080000C94C6010C94C6010C94C6010C94C601D4
:100090000C94C6010C94C6010C94C6010C94C601C4
:1000A0000C94C6010C94C6010C94C6010C94C601B4
:1000B0000C94C6010C94C6010C94C6010C94C601A4
:1000C0000C94C6010C94C6010C94C6010C94C60194
:1000D0000C94C6010C94C6010C94C6010C94C60184
:1000E0000C94C6010C9461030C94E8020C94CA07AA
:1000F0000C9427020C94A6130C9466070C94F30836
:100100000C9419020C94D0070C94D1020C9439036E
:100110000C94A9060C9457030C94F4040C949E05BB
:100120000C94D9020C9461040C94EF080C94E10532
:100130000C948D110C946F040C94F2020C941F0615
:100140000C940F0A0C942B020C94F4130C94F001F1
:100150000C94FB080C94FB010C946B030C94E601CB
:100160000C94F0060C94F8010C94F4010C94200308
:100170000C9405020C9416030C944D040C944D033E
:100180000C9491130C94CF070C943D070C94C91355
:100190000C945A080C9404030C94A7040C94B00714
:1001A0000C941D020C9426020C943E040C946A06D6
:1001B0000C945D070C94A0050C9421020C940B0286
:1001C0000C9411040C94AB130C94FC020C940F02CD
:1001D0000C94EC010C94FF080C94BD070C944303A1
:1001E0000C9459070C940C030C94DE020C9413022B
:1001F0000C942A030C9401020C94F7086364696E52
:100200006F70737578585B00000020002300260093
:1002100029002C002F00320000010000030106011C
:10022000090100002100240027002A002D003000D1
:10023000330001010000040107010A01000022004F
:10024000250028002B002E003100340002010000A0
:10025000050108010B010505050507050808080843
:10026000020202020A0A080804040404010101014E
:100270000101010103030303030303030407070749
:100280000C0C0C0C0C0C0C0C0202020206060606EE
:10029000060606060B0B0B0B0B0B0B0B01021020BB
:1002A00020080810204010204080020102010804AC
:1002B0000201010204081020408080402010080440
:1002C0000201800402018040201008040201080499
:1002D00002010102040810204080010204081020DD
:1002E000408000000A0B02090C0D0E0807030401F0
:1002F00000000000000000000000000000000000FE
:1003000000000000000000000000000000001211CA
:1003100010000000000000000000000000000000CD
:1003200000000000000000008D1111241FBECFEF5F
:10033000D1E2DEBFCDBF00E00CBF2AE0ACE8B7E001
:1003400001C01D92AC31B207E1F717E0A0E0B2E0C6
:10035000E8E1F4E300E00BBF02C007900D92AC3877
:10036000B107D9F711E0C5E9D1E000E006C0219757
:100370000109802FFE010E945914C439D10780E081
:100380000807A9F70E94AD120C940A1A0C940000F9
:100390008150823108F05AC0E82FF0E08827EC52F3
:1003A000FE4F8F4F0C945914F401F801E601EC0153
:1003B000F0012602FB01010205020B020F021302EB
:1003C00019021D022602210227022B0280918000C1
:1003D0008F77809380000895809180008F7DF9CF82
:1003E00080918000877FF5CF84B58F7784BD089595
:1003F00084B58F7DFBCF8091B0008F778093B00064
:1004000008958091B0008F7DF9CF809190008F7713
:10041000809390000895809190008F7DF9CF809116
:100420009000877FF5CF8091A0008F778093A00008
:1004300008958091A0008F7DF9CF8091A000877FE3
:10044000F5CF809120018F778093200108958091CE
:1004500020018F7DF9CF80912001877FF5CF1F93F9
:10046000CF93DF93282F30E0F901EE51FD4F8491B7
:10047000F901E456FD4FD491F901EA5AFD4FC491B8
:10048000CC23A9F0162F81110E94C801EC2FF0E0B7
:10049000EE0FFF1FE45CFD4FA591B4918FB7F89468
:1004A000EC91111108C0D095DE23DC938FBFDF9152
:1004B000CF911F910895DE2BF8CFCF93DF9390E07B
:1004C000FC01E456FD4F24918A5A9D4FFC01849112
:1004D0008823C9F090E0880F991FFC01EE5DFD4F65
:1004E000A591B491FC01E45CFD4FC591D4916111DB
:1004F0000DC09FB7F8948C91209582238C938881AE
:10050000282328839FBFDF91CF910895623051F453
:100510009FB7F8943C91822F809583238C93E88138
:100520002E2BEFCF8FB7F894EC912E2B2C938FBFFF
:10053000EACF1F93CF93DF93182FEB0161E00E9466
:100540005D02209739F460E0812FDF91CF911F91F8
:100550000C942F02CF3FD10511F461E0F5CFE12FCC
:10056000F0E0EE51FD4FE491E150E23108F0B3C00C
:10057000F0E08827E154FD4F8F4F0C945914D102BD
:10058000D902DE02E802F2026B03FC0204030C0350
:10059000160320032A03390343036B034D03570358
:1005A000610384B5806884BDC7BDDF91CF911F9181
:1005B000089584B5806284BDC8BDF7CF8091800066
:1005C000806880938000D0938900C0938800EDCF2D
:1005D00080918000806280938000D0938B00C093D4
:1005E0008A00E3CF80918000886080938000D09360
:1005F0008D00C0938C00D9CF8091B000806880932B
:10060000B000C093B300D1CF8091B00080628093DE
:10061000B000C093B400C9CF8091900080688093EF
:100620009000D0939900C0939800BFCF8091900024
:10063000806280939000D0939B00C0939A00B5CFC6
:1006400080919000886080939000D0939D00C0932B
:100650009C00ABCF8091A00080688093A000809127
:10066000A0008F7B8093A000D093A900C093A80026
:100670009CCF8091A00080628093A000D093AB00BB
:10068000C093AA0092CF8091A00088608093A000C0
:10069000D093AD00C093AC0088CF809120018068DA
:1006A00080932001D0932901C09328017ECF8091AF
:1006B0002001806280932001D0932B01C0932A01F6
:1006C00074CF80912001886080932001D0932D0108
:1006D000C0932C016ACFC038D1050CF03ECF33CF88
:1006E000863308F0865320917B00982F9870277FDF
:1006F000922B90937B002091040290E4299F90011B
:1007000011248770822B80937C0080917A00806412
:1007100080937A0080917A0086FDFCCF80917800EA
:100720009091790008950F931F93CF93DF93809159
:100730003D090E94700304E110E0D0E0C0E0809128
:100740003D090E947003C80FD91F01501109B9F764
:10075000BE01DD0F880B990B0E94761520E030E07A
:1007600040EA51E40E94D314DF91CF911F910F9181
:1007700008953FB7F89480918F0790919007A091CA
:100780009107B091920726B5A89B05C02F3F19F09D
:100790000196A11DB11D3FBFBA2FA92F982F882701
:1007A000BC01CD01620F711D811D911D42E0660FDC
:1007B000771F881F991F4A95D1F708958F929F92AE
:1007C000AF92BF92CF92DF92EF92FF926B017C01CA
:1007D0000E94B9034B015C01C114D104E104F1048E
:1007E000B9F00E94B903681979098A099B09683E22
:1007F00073408105910580F321E0C21AD108E10818
:10080000F10888EE880E83E0981EA11CB11CE4CF8D
:10081000FF90EF90DF90CF90BF90AF909F908F9020
:100820000895AF92BF92CF92DF92EF92FF920F9313
:100830001F93CF93DF936C017B018B01040F151F76
:10084000EB015E01AE18BF08C017D10759F06991DE
:10085000D601ED91FC910190F081E02DC601199532
:10086000892B79F7C501DF91CF911F910F91FF90EF
:10087000EF90DF90CF90BF90AF900895FC01538D23
:10088000448D252F30E0842F90E0821B930B54176A
:1008900010F0CF96089501970895FC01918D828DF7
:1008A000981761F0A28DAE0FBF2FB11D5D968C9190
:1008B000928D9F5F9F73928F90E008958FEF9FEFCF
:1008C0000895FC01918D828D981731F0828DE80F8B
:1008D000F11D858D90E008958FEF9FEF0895FC0145
:1008E000918D228D892F90E0805C9F4F821B910912
:1008F0008F73992708958FE997E00E946F0421E094
:10090000892B09F420E0822F0895FC01A48DA80F03
:10091000B92FB11DA35ABF4F2C91848D90E0019641
:100920008F739927848FA689B7892C93A089B18961
:100930008C91837080648C93938D848D981306C002
:100940000288F389E02D80818F7D80830895EF9266
:10095000FF920F931F93CF93DF93EC0181E0888F79
:100960009B8D8C8D98131AC0E889F989808185FF49
:1009700015C09FB7F894EE89FF896083E889F989EB
:1009800080818370806480839FBF81E090E0DF91ED
:10099000CF911F910F91FF90EF900895F62E0B8D40
:1009A00010E00F5F1F4F0F731127E02E8C8D8E11FB
:1009B0000CC00FB607FCFACFE889F989808185FF62
:1009C000F5CFCE010E948504F1CFEB8DEC0FFD2F0A
:1009D000F11DE35AFF4FF0829FB7F8940B8FEA891D
:1009E000FB8980818062CFCFCF93DF93EC01888D2C
:1009F0008823B9F0AA89BB89E889F9898C9185FD9A
:100A000003C0808186FD0DC00FB607FCF7CF8C9127
:100A100085FFF2CF808185FFEDCFCE010E94850456
:100A2000E9CFDF91CF91089562E00C945D0261E01F
:100A30000C942F02CF93DF93C1E0D0E08FE997E0D1
:100A40000E946F04892B09F449C08FE997E00E9446
:100A50004D0420918C0730918D07F901E354F74F35
:100A600080839091BD08933789F49091BE089437A4
:100A700001F59091BF089037E1F49091C0089D3046
:100A8000C1F4D0931009C0930F09D8CF923789F4DD
:100A90009091BE08933769F49091BF08943749F458
:100AA0009091C0089D3029F4D0931209C093110988
:100AB000C5CF8D3049F430930E0920930D09109263
:100AC0008D0710928C07BACF20353105C4F72F5F00
:100AD0003F4F30938D0720938C07B0CFDF91CF919C
:100AE00008950E947B0481110E941A0580E090E025
:100AF000892B49F080E090E0892B29F00E940000CA
:100B000081110E94000080E090E0892B49F080E094
:100B100090E0892B29F00E94000081110E940000C2
:100B200080E090E0892B49F080E090E0892B29F06B
:100B30000E94000081110C94000008950C9493030E
:100B4000809125099091260990933A09809339095B
:100B500008950F931F93CF93DF93EC0188810E9438
:100B60001405288130E0F901EE51FD4F8491F9011F
:100B7000E456FD4F0491F901EA5AFD4F14911123F7
:100B8000E9F081110E94C801E12FF0E0EE0FFF1F94
:100B9000E85FFD4FA591B491EC910E2331E020E088
:100BA00009F430E0832F922F9A83898321E08227F2
:100BB0008170DF91CF911F910F91089590E080E0B7
:100BC000F3CFCB01880F991F860F971F825C964F3A
:100BD0000C94A905CF93DF93EC0188810E942F022A
:100BE00061E089810E942F026F81788589859A85CD
:100BF0000E9445150E94DE0360E089810E942F0259
:100C00006B857C858D859E850E944515DF91CF91F2
:100C10000C94DE03CF93DF93EC0161E08A810E94A4
:100C20005D0261E088810E945D0261E089810E942D
:100C30005D0260E08A81DF91CF910C942F020F93C7
:100C40001F93CF93DF938091170A0E941405809120
:100C5000110A0E9414058091140A0E9414058091C3
:100C60000E0A0E94140580910B0A0E94140588EF59
:100C700099E00E940A0685EE99E00E940A0682ED3C
:100C800099E00E940A068FEB99E00E940A068CEA1E
:100C900099E00E940A0660E080913D090E945D0291
:100CA0000EE319E0CDE4D9E0C8010E94A905811145
:100CB00005C061E0CE010E94EA05F6CF0D5F1F4F2F
:100CC000639689E0CC3AD80779F7DF91CF911F91ED
:100CD0000F910895CF932091250930912609215035
:100CE000310943E1429FC001439F900D1124835B72
:100CF000964F0E940A06C3E180912509909126092A
:100D000001979C01220F331F820F931F825C964F25
:100D10000E94A90520912509309126092150310909
:100D200081110BC0C29FC001C39F900D112461E0CF
:100D3000835B964F0E94EA05DFCF83E1829FF0013B
:100D4000839FF00D1124E35BF64F8281CF910C94C9
:100D50001705EF92FF920F931F93CF93DF9320918C
:100D600025093091260921503109C3E1C29FC001F4
:100D7000C39F900D1124835B964F0E940A068091B9
:100D80002509909126090197C89F8001C99F100DE0
:100D90001124035B164FE0902709F0902809D0E05A
:100DA000C0E0CE15DF0534F461E0C8010E94EA0519
:100DB0002196F7CF8091250990912609019723E18B
:100DC000289FF001299FF00D1124E35BF64F8281EB
:100DD000DF91CF911F910F91FF90EF900C94170529
:100DE000EF92FF920F931F93CF93DF9320912509EA
:100DF0003091260921503109C3E1C29FC001C39F30
:100E0000900D1124835B964F0E940A06809125095C
:100E1000909126090197C89F8001C99F100D112448
:100E2000035B164FE0902709F0902809D0E0C0E05E
:100E3000CE15DF0534F460E0C8010E94EA05219672
:100E4000F7CF8091250990912609019723E1289FEA
:100E5000F001299FF00D1124E35BF64F8281DF91B1
:100E6000CF911F910F91FF90EF900C94170570E0B8
:100E700060E0FC0180810C9499028091FA090E9443
:100E800017058091E7090E9417058091D4090E94F7
:100E900017058091C1090E9417058091AE090E9433
:100EA00017058CE399E00E9437078BE399E00C94D7
:100EB00037078BE399E00C9437078CE399E00C94A7
:100EC000370761E0FC0180810C945D028091170A74
:100ED0000E9414058091110A0E9414058091140A41
:100EE0000E94140580910E0A0E94140580910B0A3D
:100EF0000E94140588EF99E00E940A0685EE99E0A9
:100F00000E940A0682ED99E00E940A068FEB99E0A2
:100F10000E940A068CEA99E00E940A0660E080912D
:100F20003D090E945D028CE399E00E946107609197
:100F3000230970912409772780913C090E94990226
:100F40008BE399E00E9461076FEF70E080913B09AD
:100F50000E94990268EB7BE080E090E00C94DE0355
:100F60008BE399E00E946107609125097091260941
:100F7000772780913B090C9499028CE399E00E94B9
:100F800061076091250970912609772780913C09B6
:100F90000C94990260E070E080E89FEB089508955A
:100FA00080E00895FC0101900020E9F73197AF013E
:100FB000481B590BBC018FE997E00C9411048F92E8
:100FC0009F92AF92BF920F931F93CF93DF93CDB7B2
:100FD000DEB7A1970FB6F894DEBF0FBECDBF19A242
:100FE000423008F44AE08E010F5D1F4F842E912C91
:100FF000B12CA12CA50194010E943714E62FB90150
:10100000CA01EA30F4F4E05DD801EE938D01232BA0
:10101000242B252B79F790E080E0109719F0CD0173
:101020000E94D207A1960FB6F894DEBF0FBECDBFC7
:10103000DF91CF911F910F91BF90AF909F908F90B4
:101040000895E95CE1CF009711F00C94D20790E08D
:1010500080E008958CEB92E00E9423088EE998E0EE
:101060000E94230883E597E00E94230820913C0812
:1010700030913D084CE0429FC001439F900D1124E8
:10108000825C974F0E94230882E897E00E94230821
:1010900086E793E00C942308CF93DF930E94D20756
:1010A000EC0185E793E00E94D2078C0F9D1FDF9132
:1010B000CF910895CF92DF92EF92FF920F931F93FB
:1010C000CF93DF938091170A0E9414058091110A33
:1010D0000E9414058091140A0E94140580910E0A42
:1010E0000E94140580910B0A0E94140588EF99E074
:1010F0000E940A0685EE99E00E940A0682ED99E0B8
:101100000E940A068FEB99E00E940A068CEA99E099
:101110000E940A0660E080913D090E945D028CE316
:1011200099E00E9461078BE399E00E9461076FEFED
:1011300070E080913B090E949902609123097091AF
:101140002409772780913C090E9499029EE3E92EA9
:1011500099E0F92ECDE4D9E08E01C7010E94A905DE
:10116000811105C061E0C8010E94EA05F6CF83E065
:10117000E80EF11C0D5E1F4FE9E00C3A1E0769F7FF
:1011800085E1C82E89E0D82EF601E190F1906F013B
:10119000F7FC13C08091390990913A098E159F058B
:1011A00064F010E000E0E016F10659F060E0CE01D6
:1011B0000E94EA050F5F1F4FF6CF81EC92E00E947C
:1011C0004C086396F9E0CC3ADF07F1F6DF91CF9156
:1011D0001F910F91FF90EF90DF90CF9008958AE1DB
:1011E00093E00C944C0884E293E00C944C088FE25A
:1011F00093E00C944C088AE393E00C944C0888E448
:1012000093E00C944C08CF92DF92EF92FF92CF9331
:10121000DF936C01990FEE08FF08F7FE19C06DE22D
:101220008FE997E00E94A704EC0166277727CB019E
:101230006C197D098E099F094AE00E94DF078C0F17
:101240009D1FDF91CF91FF90EF90DF90CF90089599
:101250004AE0C701B601DF91CF91FF90EF90DF9098
:10126000CF900C94DF074F925F926F927F928F9294
:101270009F92AF92BF92CF92DF92EF92FF920F9325
:101280001F93CF936B017C01742EAC019B010E94D4
:101290009816882399F083E593E0CF911F910F91E1
:1012A000FF90EF90DF90CF90BF90AF909F908F9086
:1012B0007F906F905F904F900C94D207460157013A
:1012C000E894B7F82FEF3FEF4FE75FE7C501B401B0
:1012D0000E94981681110DC02FEF3FEF4FE75FE797
:1012E000C501B4010E94CE1418161CF487E593E0E2
:1012F000D4CF2FEF3FEF4FE75FE4C701B6010E9465
:10130000261618161CF48BE593E0C7CF2FEF3FEF9E
:101310004FE75FECC701B6010E94CE1487FDF3CF03
:1013200020E030E0A901C701B6010E94CE1410E010
:1013300000E087FF0AC06DE28FE997E00E94A704F2
:101340008C01F7FAF094F7F8F094C0E060E070E0F8
:1013500080E09FE37C1641F020E030E040E251E481
:101360000E94D314CF5FF6CFA70196010E946214AA
:101370002B013C010E9445154B015C014AE00E9493
:10138000DF077C01E00EF11ECC23C1F1C501B401E1
:101390000E9474159B01AC01C301B2010E9461144B
:1013A0004B015C016EE28FE997E00E94A704E80E12
:1013B000F91EC15018F120E030E040E251E4C501CF
:1013C000B4010E942B162B013C010E9445154B01D4
:1013D000B12CA12C4AE0C501B4010E94DF07E80E40
:1013E000F91EC501B4010E9474159B01AC01C30133
:1013F000B2010E9461144B015C01DBCFC701CF91A8
:101400001F910F91FF90EF90DF90CF90BF90AF9022
:101410009F908F907F906F905F904F900895DF9294
:10142000EF92FF920F931F93CF93DF938FE593E09B
:101430000E942308C0911F09D0912009209731F5FF
:1014400064E070E080E090E00E94DE0386E793E0D5
:101450000E942308CE010E94030983E597E00E94C1
:10146000230885E693E00E94230883E597E00E9425
:1014700023080E94930342E00E94330982E897E028
:101480000E9423082196CA30D105D1F680911F0908
:101490009091200901978530910508F047C0880F89
:1014A000991FFC01EB5EF64FE080F180E70133E12C
:1014B000D32E8E012196809121099091220908173F
:1014C0001907A4F520911F093091200921503109F5
:1014D000D29EC001D39E900D112460E0835B964F95
:1014E0000E94EA056EE170E080E090E00E94DE0379
:1014F00086E793E00E942308CE018E199F090E947F
:10150000030983E597E00E942308C8010E940309AC
:1015100083E597E00E9423080E94930342E00E9423
:10152000330982E897E00E942308C3CF89E693E05D
:101530000E94230868EE73E080E090E00E94DE03E2
:101540008CE399E00E9437078BE399E0DF91CF911C
:101550001F910F91FF90EF90DF900C943707CF927F
:10156000DF92EF92FF920F931F93CF93DF938FB78A
:10157000F894C0909307D0909407E0909507F0906E
:1015800096078FBF80919B0790919C07A0919D0724
:10159000B0919E07805E914BAF4FBF4F8C159D055C
:1015A000AE05BF0550F40E942A08C0929B07D09256
:1015B0009C07E0929D07F0929E078091970790917B
:1015C0009807A0919907B0919A07805D9A48AF4F0C
:1015D000BF4F8C159D05AE05BF0560F410923D0808
:1015E00010923C08C0929707D0929807E092990712
:1015F000F0929A0780913C0890913D08019741F440
:10160000C0929707D0929807E0929907F0929A07B4
:1016100080910D0990910E09892B09F481C5809163
:10162000BD088F3309F011C18EE693E00E942308B4
:1016300088E793E00E9423088EE793E00E94230846
:1016400084E893E00E9423088AE893E00E9423083C
:1016500080E993E00E94230886E993E00E94230832
:1016600081E594E00E94230882E694E00E9423082A
:101670008CE694E00E9423088EE794E00E94230801
:101680008BE894E00E94230884EA94E00E942308F7
:1016900088E095E00E94230885E495E00E942308F5
:1016A00083E895E00E9423088CEA95E00E942308D5
:1016B0008091390990913A090E9403098BEB95E0DA
:1016C0000E94230884EC95E00E9423088091050283
:1016D000882309F420C188ED95E00E94230885E75E
:1016E00093E00E94230885EE95E00E942308E09194
:1016F0001309F0911409EE0FFF1FEB5CF64F808188
:101700009181DC01ED91FC91048CF58DE02D199512
:1017100042E00E94330985E793E00E94230881E0BC
:1017200096E00E942308E0911309F0911409EE0F4E
:10173000FF1FEB5CF64F80819181DC01ED91FC9104
:101740000488F589E02D70E060E0199590E00E9432
:10175000030985E793E00E94230886E196E00E9452
:101760002308E0911309F0911409EE0FFF1FEB5CC1
:10177000F64F80819181DC01ED91FC910488F5891F
:10178000E02D61E070E0199590E00E94030985E783
:1017900093E00E9423088BE296E00E942308E091E8
:1017A0001309F0911409EE0FFF1FEB5CF64F8081D7
:1017B0009181DC01ED91FC910488F589E02D62E0D6
:1017C00070E0199590E00E94030985E793E00E947C
:1017D000230880E496E00E942308E0911309F09129
:1017E0001409EE0FFF1FEB5CF64F80819181DC0145
:1017F000ED91FC910488F589E02D63E070E0199586
:1018000090E00E94030985E793E00E94230885E5A4
:1018100096E00E942308E0911309F0911409EE0F5D
:10182000FF1FEB5CF64F80819181DC01ED91FC9113
:101830000488F589E02D64E070E0199590E00E943D
:10184000030985E793E00E94230843E050E06AE63D
:1018500076E08DEB98E00E949D16892B11F40E9492
:101860002A0846E050E06EE676E08DEB98E00E94B4
:101870009D16892B09F067C065E776E08DEB98E04F
:101880000E940C1423E139E03F932F9328E736E0C0
:101890003F932F939F938F930E94BA160F900F90B0
:1018A0000F900F900F900F90809113099091140951
:1018B000029720F0109214091092130965E776E060
:1018C00090E080E00E940C1465E776E090E080E014
:1018D0000E940C142CE338E0C8E7D6E089010E5FC3
:1018E0001F4F0097D9F027513F4F3F932F93DF931E
:1018F000CF939F938F930E94BA1665E776E090E0AE
:1019000080E00E940C140F900F900F900F900F909A
:101910000F909801E3CF8EED95E0DFCEE0911309B3
:10192000F0911409EE0FFF1FEB5CF64F808191815F
:10193000DC01ED91FC910284F385E02D19958BE794
:1019400096E00E94230847E050E064E876E08DEBE3
:1019500098E00E949D16892BA9F4E0911309F0915B
:101960001409EE0FFF1FEB5CF64F80819181DC01C3
:10197000ED91FC910484F585E02D19958CE896E0B5
:101980000E94230847E050E066E976E08DEB98E09E
:101990000E949D16892B09F064C065E776E08DEB07
:1019A00098E00E940C1423E139E03F932F9328E73D
:1019B00036E03F932F939F938F930E94BA160F9018
:1019C0000F900F900F900F900F90809113099091AE
:1019D0001409029720F0109214091092130965E778
:1019E00076E090E080E00E940C1465E776E090E0FD
:1019F00080E00E940C142CE338E0C8E7D6E08901AF
:101A00000E5F1F4F0097C1F027513F4F3F932F9319
:101A1000DF93CF939F938F930E94BA1665E776E08A
:101A200090E080E00E940C140F900F900F900F90A8
:101A30000F900F909801E3CFE0911309F0911409F2
:101A4000EE0FFF1FEB5CF64F80819181DC01ED9181
:101A5000FC910684F785E02D19958EE996E00E94A9
:101A6000230848E050E068EA76E08DEB98E00E94B9
:101A70009D16892BA9F4E0911309F0911409EE0F3A
:101A8000FF1FEB5CF64F80819181DC01ED91FC91B1
:101A90000088F189E02D199581EB96E00E942308DA
:101AA0004BE050E06CEB76E08DEB98E00E949D16E9
:101AB000892B09F064C065E776E08DEB98E00E9421
:101AC0000C1423E139E03F932F9328E736E03F934E
:101AD0002F939F938F930E94BA160F900F900F90A1
:101AE0000F900F900F908091130990911409029715
:101AF00020F0109214091092130965E776E090E047
:101B000080E00E940C1465E776E090E080E00E949F
:101B10000C142CE338E0C8E7D6E089010E5F1F4FB4
:101B20000097C1F027513F4F3F932F93DF93CF93FF
:101B30009F938F930E94BA1665E776E090E080E06D
:101B40000E940C140F900F900F900F900F900F9019
:101B50009801E3CFE0911309F0911409EE0FFF1FF4
:101B6000EB5CF64F80819181DC01ED91FC91028864
:101B7000F389E02D199588EC96E00E9423084BE04C
:101B800050E066ED76E08DEB98E00E949D16892B83
:101B900009F068C065E776E08DEB98E00E940C14D0
:101BA00023E139E03F932F9328E736E03F932F93CB
:101BB0009F938F930E94BA160F900F900F900F90E3
:101BC0000F900F908091130990911409029720F0C3
:101BD000109214091092130965E776E090E080E016
:101BE0000E940C1465E776E090E080E00E940C14FF
:101BF0002CE338E0C8E7D6E089010E5F1F4F00975D
:101C0000C1F027513F4F3F932F93DF93CF939F9383
:101C10008F930E94BA1665E776E090E080E00E941C
:101C20000C140F900F900F900F900F900F90980141
:101C3000E3CF80912509909126098130910509F023
:101C40006BC081E08093050282EE96E00E9423083B
:101C500080912509909126090E94030985E793E068
:101C60000E9423084CE050E066EF76E08DEB98E0B0
:101C70000E949D16892B09F06AC065E776E08DEB1E
:101C800098E00E940C1423E139E03F932F9328E75A
:101C900036E03F932F939F938F930E94BA160F9035
:101CA0000F900F900F900F900F90809113099091CB
:101CB0001409029720F0109214091092130965E795
:101CC00076E090E080E00E940C1465E776E090E01A
:101CD00080E00E940C142CE338E0C8E7D6E08901CC
:101CE0000E5F1F4F0097F1F027513F4F3F932F9307
:101CF000DF93CF939F938F930E94BA1665E776E0A8
:101D000090E080E00E940C140F900F900F900F90C5
:101D10000F900F909801E3CF892B09F095CF109287
:101D2000050292CFE0911309F0911409EE0FFF1F05
:101D3000EB5CF64F80819181DC01ED91FC9106888E
:101D4000F789E02D199583E097E00E9423084DE084
:101D500050E062E177E08DEB98E00E949D16892BC0
:101D600009F064C065E776E08DEB98E00E940C1402
:101D700023E139E03F932F9328E736E03F932F93F9
:101D80009F938F930E94BA160F900F900F900F9011
:101D90000F900F908091130990911409029720F0F1
:101DA000109214091092130965E776E090E080E044
:101DB0000E940C1465E776E090E080E00E940C142D
:101DC0002CE338E0C8E7D6E089010E5F1F4F00978B
:101DD000C1F027513F4F3F932F93DF93CF939F93B2
:101DE0008F930E94BA1665E776E090E080E00E944B
:101DF0000C140F900F900F900F900F900F90980170
:101E0000E3CFE0911309F0911409EE0FFF1FEB5C93
:101E1000F64F80819181DC01ED91FC91008CF18D78
:101E2000E02D199580E297E00E9423084CE050E0F5
:101E300060E377E08DEB98E00E949D16892B09F016
:101E40006AC065E776E08DEB98E00E940C1423E110
:101E500039E03F932F9328E736E03F932F939F93EA
:101E60008F930E94BA160F900F900F900F900F90C3
:101E70000F908091130990911409029720F010920D
:101E800014091092130965E776E090E080E00E9463
:101E90000C1465E776E090E080E00E940C1465E7A2
:101EA00076E090E080E00E940C142CE338E0C8E774
:101EB000D6E089010E5F1F4F0097C1F027513F4FB9
:101EC0003F932F93DF93CF939F938F930E94BA16E4
:101ED00065E776E090E080E00E940C140F900F9090
:101EE0000F900F900F900F909801E3CFE09113099E
:101EF000F0911409EE0FFF1FEB5CF64F808191818A
:101F0000DC01ED91FC91028CF38DE02D19958DE3B0
:101F100097E00E94230843E050E06CE477E08DEB0B
:101F200098E00E949D16892B09F096C065E776E03F
:101F30008DEB98E00E940C1423E139E03F932F933E
:101F400028E736E03F932F939F938F930E94BA1612
:101F50000F900F900F900F900F900F90809113099A
:101F600090911409029720F010921409109213090D
:101F700065E776E090E080E00E940C142CE338E006
:101F8000C8E7D6E089010E5F1F4F0097C1F02752C6
:101F90003F4F3F932F93DF93CF939F938F930E9455
:101FA000BA1665E776E090E080E00E940C140F908E
:101FB0000F900F900F900F900F909801E3CF8091AA
:101FC000390990913A09C5E1D9E02FE139E0FE01E4
:101FD000419151918417950724F4DF0112978D9355
:101FE0009C932E173F07A1F72091210930912209D8
:101FF0008217930724F490932209809321098091FA
:102000002309909124098F3F910539F034F08FEF27
:1020100090E0909324098093230980E597E00E9443
:10202000230805E219E083E597E00E9423088991DF
:1020300099910E9403090C171D07A9F782E897E000
:102040000E94230886E793E00E94230882E090E044
:1020500090933D0880933C0843E050E065E577E0CD
:102060008DEB98E00E949D16892B01F56091130974
:102070007091140990E080E04AE00E94DF07C5E11A
:10208000D9E005E219E083E597E00E9423088991F1
:1020900099910E9403090C171D07A9F782E897E0A0
:1020A0000E94230886E793E00E94230843E050E063
:1020B00069E577E08DEB98E00E949D16892B31F45D
:1020C00084E090E090933D0880933C0880910F0954
:1020D00090911009019781F410923D0810923C08EC
:1020E0008DE597E00E94230886E793E00E9423088D
:1020F0001092100910920F09809111099091120904
:10210000019751F486E090E090933D0880933C085D
:10211000109212091092110910920E0910920D09D5
:10212000DF91CF911F910F91FF90EF90DF90CF90B3
:1021300008951F920F920FB60F9211242F933F9381
:102140008F939F93AF93BF93809193079091940740
:10215000A0919507B091960730918E0723E0230F49
:102160002D3758F50196A11DB11D20938E07809340
:10217000930790939407A0939507B0939607809147
:102180008F0790919007A0919107B09192070196C7
:10219000A11DB11D80938F0790939007A093910785
:1021A000B0939207BF91AF919F918F913F912F91E3
:1021B0000F900FBE0F901F90189526E8230F0296E0
:1021C000A11DB11DD2CF1F920F920FB60F921124F5
:1021D0000BB60F922F933F934F935F936F937F9321
:1021E0008F939F93AF93BF93EF93FF938FE997E004
:1021F0000E948504FF91EF91BF91AF919F918F91C4
:102200007F916F915F914F913F912F910F900BBEF6
:102210000F900FBE0F901F9018951F920F920FB640
:102220000F9211240BB60F922F938F939F93EF93DE
:10223000FF93E091AF07F091B0078081E091B5077F
:10224000F091B60782FD1DC090818091B8078F5F25
:102250008F732091B907821741F0E091B807F0E041
:10226000E156F84F958F8093B807FF91EF919F91BA
:102270008F912F910F900BBE0F900FBE0F901F905C
:1022800018958081F2CF8F929F92AF92BF92EF927A
:102290000F93CF93DF93EC014A015B0108832983FD
:1022A000EA828B829C82AD82BE828DEC9CECACEC8F
:1022B000BDE38F839887A987BA87AB0194016AE948
:1022C00079E989E99EE30E94D31420E030E04AE7EF
:1022D00054E40E942B162DEC3CEC4CEC5DE30E9488
:1022E00061146B877C878D879E8720E030E041E614
:1022F00054E4C501B4010E94261618162CF483EF8D
:1023000092E00E944C08FFCFDF91CF910F91EF90A8
:10231000BF90AF909F908F900895EF920F93CF93BF
:10232000DF931092A2071092A10788EE93E0A0E03D
:10233000B0E08093A3079093A407A093A507B09360
:10234000A6078EEA92E09093A00780939F0785EC02
:1023500090E09093AC078093AB0784EC90E090936F
:10236000AE078093AD0780EC90E09093B007809328
:10237000AF0781EC90E09093B2078093B10782ECB5
:1023800090E09093B4078093B30786EC90E090932D
:10239000B6078093B5071092B8071092B90710924C
:1023A000BA071092BB07C3E0C093170AD2E0D093DC
:1023B000140A8EE08093110A8FE080930E0A82E166
:1023C00080930B0A88E1E82E0CE12AE140E050E01E
:1023D00068EC72E488EF99E00E9443119EE1E92ED7
:1023E00002E224E240E050E068EC72E485EE99E01D
:1023F0000E94431126E2E22E07E326E340E050E08C
:1024000068EC72E482ED99E00E94431138E3E32E18
:102410000DE32CE340E050E068EC72E48FEB99E0D0
:102420000E9443114EE3E42E00E32EE240E050E030
:1024300068EC72E48CEA99E00E94431183E1E2EDDA
:10244000F9E0ADE4B9E001900D928A95E1F783E1FE
:10245000EFEBF9E0A0E6B9E001900D928A95E1F783
:1024600083E1E5EEF9E0A3E7B9E001900D928A95EA
:10247000E1F783E1ECEAF9E0A6E8B9E001900D921A
:102480008A95E1F783E1E8EFF9E0A9E9B9E0019085
:102490000D928A95E1F78091140A9091150AA09106
:1024A000160A80933E0990933F09A09340098091BA
:1024B0000E0A90910F0AA091100A809341099093FF
:1024C0004209A09343098091110A9091120AA091A8
:1024D000130A8093440990934509A093460980917B
:1024E0000B0A90910C0AA0910D0A809347099093D2
:1024F0004809A09349098091170A9091180AA09160
:10250000190A80934A0990934B09A0934C098FE3D1
:1025100080933D09809105028823E1F0D093040265
:102520008CE280933C0989E080933B0980E6E6E0F9
:10253000F2E0AEE3B8E001900D928A95E1F784E80D
:1025400093E090933A0980933909DF91CF910F91ED
:10255000EF900895C0930402E3CF789484B582602D
:1025600084BD84B5816084BD85B5826085BD85B537
:10257000816085BD80916E00816080936E001092B5
:102580008100809181008260809381008091810030
:1025900081608093810080918000816080938000C1
:1025A0008091B10084608093B1008091B00081601F
:1025B0008093B0008091910082608093910080911F
:1025C0009100816080939100809190008160809360
:1025D00090008091A10082608093A1008091A10071
:1025E00081608093A1008091A00081608093A00011
:1025F000809121018260809321018091210181607D
:10260000809321018091200181608093200180913D
:102610007A00846080937A0080917A00826080934F
:102620007A0080917A00816080937A0080917A00AC
:10263000806880937A001092C1004EE150E062E61B
:1026400077E08EE998E00E94AB161092BC0881E01A
:1026500090E090933D0880933C08909314098093F8
:102660001309E091AF07F091B00782E08083E09119
:10267000AB07F091AC071082E091AD07F091AE0787
:1026800080E180831092B707E091B307F091B4071F
:1026900086E08083E091B107F091B207808180618C
:1026A0008083E091B107F091B207808188608083D8
:1026B000E091B107F091B207808180688083E0915A
:1026C000B107F091B20780818F7D808382E092E034
:1026D000909336098093350980E092E09093380911
:1026E00080933709C7E0D0E005E010E053E0E52E25
:1026F000F12CCC24C394D12CE0913C08F0913D08FE
:10270000E830F10528F58827E757FC4E8F4F0C94E9
:1027100059149113A613AB13A613C913A613F413DC
:10272000A613E0911309F0911409EE0FFF1FEB5C63
:10273000F64F80819181DC01ED91FC910190F08157
:10274000E02D1995D0923D08C0923C080E94AF0A36
:102750000E947105D1CFE0911309F0911409EE0F99
:10276000FF1FEB5CF64F80819181DC01ED91FC91C4
:102770000280F381E02D1995F0923D08E0923C082B
:1027800085E797E00E94230886E793E00E942308EC
:10279000DDCFE0911309F0911409EE0FFF1FEB5C00
:1027A000F64F80819181DC01ED91FC910480F581EF
:1027B000E02D199510933D0800933C088CE797E0B5
:1027C0000E942308E0911309F0911409EE0FFF1FF6
:1027D000EB5CF64F80819181DC01ED91FC910680EC
:1027E000F781E02D1995B2CFE0911309F09114090A
:1027F000EE0FFF1FEB5CF64F80819181DC01ED91C4
:10280000FC910084F185E02D1995D0933D08C0938B
:102810003C0884E897E0B6CF4AE15AE00C941014E3
:10282000FA01A191B081009719F41097E1F0CD0160
:10283000DC01CD010D90002011F4C00113C0FB019B
:102840002191222319F02015D9F7F3CFFB01219113
:10285000201519F41E92119606C02223C1F70D907F
:102860000020A1F7D001FA01A193B0830895A1E25D
:102870001A2EAA1BBB1BFD010DC0AA1FBB1FEE1FFA
:10288000FF1FA217B307E407F50720F0A21BB30B45
:10289000E40BF50B661F771F881F991F1A9469F7C1
:1028A00060957095809590959B01AC01BD01CF011D
:1028B0000895EE0FFF1F881F8BBF0790F691E02D44
:1028C00019945058BB27AA270E9479140C94EC1530
:1028D0000E94DE1538F00E94E51520F039F49F3F84
:1028E00019F426F40C94DB150EF4E095E7FB0C9438
:1028F000D515E92F0E94FD1558F3BA176207730723
:102900008407950720F079F4A6F50C941F160EF4B1
:10291000E0950B2EBA2FA02D0B01B90190010C01EF
:10292000CA01A0011124FF27591B99F0593F50F407
:10293000503E68F11A16F040A22F232F342F44275F
:10294000585FF3CF469537952795A795F040539557
:10295000C9F77EF41F16BA0B620B730B840BBAF027
:102960009150A1F0FF0FBB1F661F771F881FC2F792
:102970000EC0BA0F621F731F841F48F487957795A6
:102980006795B795F7959E3F08F0B0CF9395880F60
:1029900008F09927EE0F9795879508950E94B11535
:1029A00008F481E008950E94E7140C94EC150E944D
:1029B000E51558F00E94DE1540F029F45F3F29F03C
:1029C0000C94D51551110C9420160C94DB150E9413
:1029D000FD1568F39923B1F3552391F3951B550B1E
:1029E000BB27AA2762177307840738F09F5F5F4FE2
:1029F000220F331F441FAA1FA9F335D00E2E3AF021
:102A0000E0E832D091505040E695001CCAF72BD038
:102A1000FE2F29D0660F771F881FBB1F2617370789
:102A20004807AB07B0E809F0BB0B802DBF01FF27BB
:102A300093585F4F3AF09E3F510578F00C94D515AE
:102A40000C9420165F3FE4F3983ED4F38695779577
:102A50006795B795F7959F5FC9F7880F911D969574
:102A6000879597F90895E1E0660F771F881FBB1FD0
:102A7000621773078407BA0720F0621B730B840B7D
:102A8000BA0BEE1F88F7E09508950E94051688F0AE
:102A90009F5798F0B92F9927B751B0F0E1F0660F22
:102AA000771F881F991F1AF0BA95C9F714C0B13063
:102AB00091F00E941F16B1E008950C941F16672F25
:102AC000782F8827B85F39F0B93FCCF38695779592
:102AD0006795B395D9F73EF490958095709561957B
:102AE0007F4F8F4F9F4F0895E89409C097FB3EF4A6
:102AF00090958095709561957F4F8F4F9F4F99234B
:102B0000A9F0F92F96E9BB279395F69587957795C8
:102B10006795B795F111F8CFFAF4BB0F11F460FF88
:102B20001BC06F5F7F4F8F4F9F4F16C0882311F0E0
:102B300096E911C0772321F09EE8872F762F05C0F4
:102B4000662371F096E8862F70E060E02AF09A958F
:102B5000660F771F881FDAF7880F9695879597F984
:102B60000895990F0008550FAA0BE0E8FEEF16161E
:102B70001706E807F907C0F012161306E407F50771
:102B800098F0621B730B840B950B39F40A2661F0E5
:102B9000232B242B252B21F408950A2609F4A14088
:102BA000A6958FEF811D811D089597F99F6780E895
:102BB00070E060E008959FEF80EC089500240A948F
:102BC0001616170618060906089500240A94121608
:102BD0001306140605060895092E0394000C11F43B
:102BE000882352F0BB0F40F4BF2B11F460FF04C0E8
:102BF0006F5F7F4F8F4F9F4F089557FD9058440F41
:102C0000551F59F05F3F71F04795880F97FB991F4B
:102C100061F09F3F79F08795089512161306140608
:102C2000551FF2CF4695F1DF08C016161706180695
:102C3000991FF1CF86957105610508940895E89470
:102C4000BB2766277727CB0197F908950E94B11516
:102C500008F48FEF08950E943E160C94EC150E9424
:102C6000DE1538F00E94E51520F0952311F00C9444
:102C7000D5150C94DB1511240C9420160E94FD151B
:102C800070F3959FC1F3950F50E0551F629FF001BF
:102C9000729FBB27F00DB11D639FAA27F00DB11DD8
:102CA000AA1F649F6627B00DA11D661F829F222761
:102CB000B00DA11D621F739FB00DA11D621F839FE8
:102CC000A00D611D221F749F3327A00D611D231FBE
:102CD000849F600D211D822F762F6A2F11249F570C
:102CE00050409AF0F1F088234AF0EE0FFF1FBB1F0F
:102CF000661F771F881F91505040A9F79E3F5105CE
:102D000080F00C94D5150C9420165F3FE4F3983EA8
:102D1000D4F3869577956795B795F795E7959F5F77
:102D2000C1F7FE2B880F911D9695879597F9089509
:102D30000E94B115880B990B0895FB01DC014150ED
:102D4000504030F08D910190801919F40020B9F7AE
:102D5000881B990B0895FB01DC014150504048F05D
:102D600001900D920020C9F701C01D9241505040C2
:102D7000E0F70895CF93DF93CDB7DEB72E970FB668
:102D8000F894DEBF0FBECDBF85E08C838C899D8912
:102D90009A838983AE01485E5F4F6E897F89CE0139
:102DA00001960E9486182E960FB6F894DEBF0FBECD
:102DB000CDBFDF91CF91089520FD09C0FC0123FD17
:102DC00005C022FF02C0738362835183408308954C
:102DD00044FD17C046FD1DC0DB01FC01AA0FBB1F4F
:102DE000EE1FFF1F1094D1F76A0F7B1F8E1F9F1FCE
:102DF000660F771F881F991F620F711D811D911D1E
:102E0000089533E0660F771F881F991F3150D1F75F
:102E1000F3CF34E0F7CF0F931F93CF93DF938C0161
:102E2000C8010E94B319EC0197FD08C00E949F19C8
:102E3000892BB1F7B801CE010E94EF19CE01DF91C5
:102E4000CF911F910F9108958F929F92AF92BF9251
:102E5000EF92FF920F931F93CF93DF938C01D62FA6
:102E60007A01B22E0E94B3199C0133272B3231050F
:102E700029F02D323105A9F46894B7F8D15061F4E6
:102E800080E0DF91CF911F910F91FF90EF90BF9065
:102E9000AF909F908F900895C8010E94B31997FD3D
:102EA000EFCFCB2DCD7F2B2D2073F9F48033E9F4B8
:102EB000AA24AA94AD0E89F0C8010E94B31997FD07
:102EC0000CC0282F2F7D283561F4C264D25029F020
:102ED000C8010E94B31997FF08C0812C912C54019E
:102EE0001BC0B6FE2BC0C260DA2D812C912C540180
:102EF00020ED280F283028F1C4FD09C02A3008F140
:102F0000C6FF05C02F7D3FEE320F3630C8F0B80146
:102F10000E94EF19C1FFB4CFC7FF08C0B094A094BE
:102F200090948094811C911CA11CB11C2C2FB50184
:102F3000A401C7010E94DC1681E0A3CFC261D4CFF7
:102F400027504C2FC501B4010E94E8164B015C01CB
:102F5000C260D15009F3C8010E94B31997FFC8CFCE
:102F6000D9CF7F928F929F92AF92BF92CF92DF92F2
:102F7000EF92FF920F931F93CF93DF93CDB7DEB7FE
:102F8000A0970FB6F894DEBF0FBECDBF5C01962EA2
:102F90007A01CE0101966C0180E2F60111928A95C8
:102FA000E9F7F501B381890130E020E0712C812C33
:102FB000A0E041E050E0F801B3FD8591B3FF8191BD
:102FC000982F8F01811117C010E000E0C801A09672
:102FD0000FB6F894DEBF0FBECDBFDF91CF911F912A
:102FE0000F91FF90EF90DF90CF90BF90AF909F90A8
:102FF0008F907F9008958E3519F42115310541F198
:10300000A21713064CF48D3549F18D3229F4811045
:1030100006C0882483941DC0882009F464C0E92F69
:10302000E695E695E695EC0DFD2DF11D892F87704F
:10303000BA0101C0660F8A95EAF78081682B608328
:10304000791651F0971510F49F5FE9CF9150E7CFB3
:10305000A1E02F5F3F4FAFCF812CFBCF882019F02D
:103060008E8180628E83AA2359F0F6019E012F5D26
:103070003F4F8081809580833196E217F307C9F72F
:1030800088248394C5010E94B31997FD16C0E82FC8
:10309000E695E695E695EC0DFD2DF11D208130E0DD
:1030A000AC014770552702C0359527954A95E2F740
:1030B00020FD06C0B5010E94EF19882069F084CF79
:1030C000E114F10429F0F7018083C70101967C0126
:1030D0009A94812C9110D6CFE114F10409F476CFA3
:1030E000F701108273CFE82FE695E695E695EC0D93
:1030F000FD2DF11D982F9770BA0101C0660F9A95AA
:10310000EAF79081692B6083782EA3CF5F926F924C
:103110007F928F929F92AF92BF92CF92DF92EF9267
:10312000FF920F931F93CF93DF936C01EB015A0132
:10313000FC0117821682512CF601E380FE01E3FCAC
:103140008591E3FE8191182FEF018823E9F090E04B
:103150000E949F19892B21F0C6010E940B17ECCF0A
:10316000153241F4FE01E3FC1591E3FE1191EF01EC
:10317000153269F4C6010E94B31997FD8EC0181765
:10318000D9F2B6010E94EF19852D90E08AC000E0C7
:103190001A3231F4E3FC1591E3FE1191EF0101E0E5
:1031A000F12C20ED210F2A3048F101FF37C0FF201C
:1031B00059F31836B1F11C3609F43DC0112321F33F
:1031C000612F70E08CEF91E00E94A819892BE1F249
:1031D000912C812C00FD06C0F50180809180C501F5
:1031E00002965C011E3679F5F6014681578170E042
:1031F00060E0202FC4010E94DC169ECF02606F2D7C
:1032000070E090E080E040E20E94E816F62EFE01B9
:10321000E3FC1591E3FE1191EF01C3CFFF24FA9473
:10322000C8CFFE01E3FC1591E3FE1191EF011836C2
:1032300009F0C4CF08600460FE01E3FC1591E3FED1
:103240001191EF01BBCF1336C1F401FD02C0FF2481
:10325000F394C6010E94B31997FD1FC08114910415
:1032600029F0F4018083C40101964C01FA94F11015
:10327000F0CF00FD61CF53945FCF1B3511F59E0158
:10328000A4016F2DC6010E94B117EC01892B89F7AB
:10329000F6018381807309F477CF8FEF9FEF511090
:1032A00073CFDF91CF911F910F91FF90EF90DF903F
:1032B000CF90BF90AF909F908F907F906F905F90D6
:1032C0000895C6010E940B1797FDE7CF1F36A9F19D
:1032D00030F4143641F0193639F0006405C0133764
:1032E000B9F01537D1F70062202FA4016F2DC60168
:1032F0000E9424178111BDCFCBCF8114910429F0F6
:10330000F4016082C40101964C01FA94FF2071F02F
:10331000C6010E94B3193C0197FD08C00E949F1985
:10332000892B59F3B601C3010E94EF19811491044E
:1033300009F49FCFF40110829CCF0061D5CF911189
:103340000C94071A803219F089508550C8F70895F7
:10335000FC010590061621F00020D9F7C001089560
:103360003197CF010895CF93DF93EC012B8120FF9C
:103370001AC026FF0CC02F7B2B838E819F81019664
:103380009F838E838A8190E0DF91CF91089522FF01
:1033900018C0E881F9818081082E000C990B0097F4
:1033A00029F420622B838FEF9FEFEECF3196F983C4
:1033B000E8832E813F812F5F3F4F3F832E839927E4
:1033C000E3CFEA85FB85199597FFF3CF2B81019613
:1033D00021F080E2822B8B83E6CF80E1FBCFFB01E3
:1033E000238120FF11C026FD0FC08F3F980771F089
:1033F00082832F7D206423832681378121503109E8
:1034000037832683992708958FEF9FEF0895992793
:0834100088270895F894FFCF0E
:103418006A028C02010153544F5050494E47000034
:10342800000053544F505045440000000000434FE3
:103438004E4649475552494E4700434F4E46494725
:103448005552454400005354415254494E470000D8
:1034580000005354415254454400000000005245B6
:10346800534554494E4700000000524553455445C2
:10347800440000000000000000003D075A086607ED
:103488000F0A1F06BD075D07B0075907A005E1052C
:10349800F006A9066A069E0500000000FF08FB0862
:1034A800F308EF08F708CF07CF07CF07CF07CF07F5
:1034B800D007CF07CF07CF07CA0700000000A7042F
:1034C80011043E04F4046F044D0461044944530993
:1034D80000455252206461646F7320696E636F7295
:1034E8007265746F73206EC3A36F20766169207252
:1034F8006F64617220706F6C6172697A61646F7257
:103508006573004552524F523A20535445505F4616
:1035180052455155454E4359206578636565647336
:1035280020323130206B487A2100305F7374617229
:1035380074656400305F7374617274696E6700301B
:103548005F7265736574696E6700305F636F6E667E
:1035580069677572696E6700305F73746F70706940
:103568006E67006E616E00696E66006F7666004475
:1035780041540A0D004E614E00454E440D00484529
:103588004C503A0D0A0D0A006375720D0A007374E7
:10359800720D0A007374700D0A007273740D0A00BC
:1035A8006964730D0A006366672074686574613125
:1035B8005B303A4D4158494D554D5F535445505D28
:1035C800207468657461325B303A4D4158494D55F5
:1035D8004D5F535445505D207468657461335B30AA
:1035E8003A4D4158494D554D5F535445505D2074EF
:1035F80068657461345B303A4D4158494D554D5FAB
:10360800535445505D207468657461355B303A4D9C
:103618004158494D554D5F535445505D20706F6C6E
:103628006172697A65725F746F5F73776565705BE5
:10363800313A355D2074686574615F6D61785B301F
:103648003A4D4158494D554D5F535445505D2050B2
:10365800574D4C65645B303A3235355D0D0A0D0ABD
:10366800006C6564206F6E205B303A3235355D0D35
:103678000A006C6564206F66660D0A006C616D70E7
:10368800206F6E205B303A3235355D0D0A006C6173
:103698006D70206F66660D0A0D0A00736574206DE3
:1036A800617873746570205B303A313030305D0D6D
:1036B8000A0D0A007365742076726566315F3120E1
:1036C8005B303A315D202F2F20612066696D2064C0
:1036D80065206EC3A36F2073617475726172206C6C
:1036E80065697475726120646F2070686F746F64A7
:1036F800696F646F2C206966203120567265663DBB
:10370800312E315620656C736520567265663D32E0
:103718002E353656200D0A006D6F766520666F725D
:103728007761726420706F6C6172697A65725F7418
:103738006F5F73776565705B313A355D20737465CB
:1037480070735B303A4D4158494D554D5F53544560
:10375800505D0D0A006D6F7665206261636B77615D
:10376800726420706F6C6172697A65725F746F5FE2
:1037780073776565705B313A355D20737465707376
:103788005B303A4D4158494D554D5F535445505D56
:103798000D0A00676F20746F206F726967696E2069
:1037A800706F6C6172697A65725F746F5F73776549
:1037B80065705B313A355D0D0A0D0A004D41584977
:1037C8004D554D5F535445503A2000207374657031
:1037D800730D0A005265666572656E636520566FE3
:1037E8006C746167653A200020312E315600203212
:1037F8002E3536560050686F746F64696F646520A3
:1038080056616C75652028302D31303233293A20C5
:10381800005377697463682031205472696767655B
:103828007265643A200053776974636820322054C3
:1038380072696767657265643A20005377697463D3
:10384800682033205472696767657265643A20009E
:1038580053776974636820342054726967676572A6
:1038680065643A2000537769746368203520547280
:10387800696767657265643A2000696473006C65FE
:1038880064206F6E000920002564006C65645F6F1A
:103898006E0D0A006C6564206F6666006C65645F77
:1038A8006F66660D0A006C616D70206F6E006C614A
:1038B8006D705F6F6E0D0A006C616D70206F6666CB
:1038C800006C616D705F6F66660D0A007365742029
:1038D8006D617873746570007365745F6D6178737A
:1038E8007465700D0A007365742076726566315FC1
:1038F80031007365745F564F4C54414745524546F5
:10390800315F31565F006D6F766520666F72776143
:103918007264006D6F76655F666F72776172640DB1
:103928000A006D6F7665206261636B77617264006F
:103938006D6F76655F6261636B776172640D0A0013
:10394800676F20746F206F726967696E00676F5FB9
:10395800746F5F6F726967696E0D0A00636667004E
:1039680043464709006375720073747200535450DC
:103978000D00454C41425F46495645504F4C415217
:10398800495A4552004346474F4B0D005354524F36
:0C3998004B0A0D005253544F4B0D000021
:00000001FF
