:100000000C9477010C94A8010C94A8010C94A801FD
:100010000C94A8010C94A8010C94A8010C94A801BC
:100020000C94A8010C94A8010C94A8010C94A801AC
:100030000C94A8010C94A8010C94A8010C94A8019C
:100040000C94A8010C94A8010C94A8010C94A8018C
:100050000C94A8010C94A8010C94A8010C94B10A6A
:100060000C94A8010C94250B0C94FB0A0C94A80189
:100070000C94A8010C94A8010C94A8010C94A8015C
:100080000C94A8010C94A8010C94A8010C94A8014C
:100090000C94A8010C94A8010C94A8010C94A8013C
:1000A0000C94A8010C94A8010C94A8010C94A8012C
:1000B0000C94A8010C94A8010C94A8010C94A8011C
:1000C0000C94A8010C94A8010C94A8010C94A8010C
:1000D0000C94A8010C94A8010C94A8010C94A801FC
:1000E0000C94A8010C94B3020C94CA020C94020361
:1000F0000C9448070C941D040C942F030C944C078B
:100100000C9409040C94F1010C9403020C94F50175
:100110000C94FF010C94D6010C9425030C94E3017C
:100120000C94E7010C94F8020C94FB010C949205DA
:100130000C9440070C94B8050C94AF0D0C94440734
:100140000C94770D0C94E6020C94D4020C94EE02FD
:100150000C94CD030C9409020C944D030C94BB0237
:100160000C941B030C940C030C94D2010C948C0D76
:100170000C94DA0D0C94DA010C9463040C94DD01F8
:100180000C9439030C94C0020C945C080C94ED019F
:100190000C94DE020C9408020C94A50B0C948406BB
:1001A0000C94C8010C94910D0C94CE010C942B046A
:1001B0000C94B0040C940D020C9443030C94FA03B9
:1001C0006364696E6F70737578585B00000020007F
:1001D0002300260029002C002F003200000100001F
:1001E00003010601090100002100240027002A0064
:1001F0002D003000330001010000040107010A0155
:1002000000002200250028002B002E0031003400C1
:1002100002010000050108010B01050505050705A0
:1002200008080808020202020A0A08080404040472
:10023000010101010101010103030303030303039E
:10024000040707070C0C0C0C0C0C0C0C020202022D
:1002500006060606060606060B0B0B0B0B0B0B0B16
:1002600001021020200808102040102040800201C8
:1002700002010804020101020408102040808040AD
:1002800020100804020180040201804020100804AC
:10029000020108040201010204081020408001024A
:1002A00004081020408000000A0B02090C0D0E0803
:1002B000070304010000000000000000000000002F
:1002C000000000000000000000000000000000002E
:1002D00000001211100000000000000000000000EB
:1002E000000000000000000000000000A50B112429
:1002F0001FBECFEFD1E2DEBFCDBF00E00CBF26E0D6
:10030000A8E8B3E001C01D92A830B207E1F713E0FE
:10031000A0E0B2E0E2ECF7E200E00BBF02C0079021
:100320000D92A838B107D9F711E0C7E7D1E000E096
:1003300006C021970109802FFE010E942E0EC637AC
:10034000D10780E00807A9F70E94930C0C94DF13F3
:100350000C9400008150823108F05AC0E82FF0E080
:100360008827EA54FE4F8F4F0C942E0ED601DA01E7
:10037000C801CE01D2010802DD01E301E701ED0170
:10038000F101F501FB01FF010802030209020D0260
:10039000809180008F778093800008958091800005
:1003A0008F7DF9CF80918000877FF5CF84B58F77DF
:1003B00084BD089584B58F7DFBCF8091B0008F7789
:1003C0008093B00008958091B0008F7DF9CF809127
:1003D00090008F77809390000895809190008F7D9A
:1003E000F9CF80919000877FF5CF8091A0008F7723
:1003F0008093A00008958091A0008F7DF9CF809117
:10040000A000877FF5CF809120018F778093200116
:100410000895809120018F7DF9CF80912001877F01
:10042000F5CF1F93CF93DF93282F30E0F901EA55E2
:10043000FD4F8491F901E05AFD4FD491F901E65E38
:10044000FD4FC491CC23A9F0162F81110E94AA015F
:10045000EC2FF0E0EE0FFF1FE050FE4FA591B4919E
:100460008FB7F894EC91111108C0D095DE23DC937E
:100470008FBFDF91CF911F910895DE2BF8CFCF93DF
:10048000DF9390E0FC01E05AFD4F2491865E9D4F82
:10049000FC0184918823C9F090E0880F991FFC012A
:1004A000EA51FE4FA591B491FC01E050FE4FC59179
:1004B000D49161110DC09FB7F8948C91209582233F
:1004C0008C938881282328839FBFDF91CF91089543
:1004D000623051F49FB7F8943C91822F809583232A
:1004E0008C93E8812E2BEFCF8FB7F894EC912E2BC5
:1004F0002C938FBFEACF1F93CF93DF93182FEB017D
:1005000061E00E943F02209739F460E0812FDF9183
:10051000CF911F910C941102CF3FD10511F461E0EE
:10052000F5CFE12FF0E0EA55FD4FE491E150E231E3
:1005300008F0B3C0F0E08827EF55FD4F8F4F0C94C3
:100540002E0EB302BB02C002CA02D4024D03DE0269
:10055000E602EE02F80202030C031B0325034D031F
:100560002F033903430384B5806884BDC7BDDF9181
:10057000CF911F91089584B5806284BDC8BDF7CF27
:1005800080918000806880938000D0938900C09320
:100590008800EDCF80918000806280938000D093AE
:1005A0008B00C0938A00E3CF8091800088608093A5
:1005B0008000D0938D00C0938C00D9CF8091B00083
:1005C00080688093B000C093B300D1CF8091B00019
:1005D00080628093B000C093B400C9CF8091900036
:1005E000806880939000D0939900C0939800BFCF0B
:1005F00080919000806280939000D0939B00C09384
:100600009A00B5CF80919000886080939000D0933D
:100610009D00C0939C00ABCF8091A0008068809328
:10062000A0008091A0008F7B8093A000D093A900B0
:10063000C093A8009CCF8091A00080628093A0000E
:10064000D093AB00C093AA0092CF8091A0008860A5
:100650008093A000D093AD00C093AC0088CF809170
:100660002001806880932001D0932901C093280144
:100670007ECF80912001806280932001D0932B0156
:10068000C0932A0174CF809120018860809320015B
:10069000D0932D01C0932C016ACFC038D1050CF046
:1006A0003ECF33CF863308F0865320917B00982FBE
:1006B0009870277F922B90937B002091040290E406
:1006C000299F900111248770822B80937C00809158
:1006D0007A00806480937A0080917A0086FDFCCF56
:1006E000809178009091790008953FB7F8948091B7
:1006F0008B0390918C03A0918D03B0918E0326B54E
:10070000A89B05C02F3F19F00196A11DB11D3FBF49
:10071000BA2FA92F982F8827BC01CD01620F711D18
:10072000811D911D42E0660F771F881F991F4A9512
:10073000D1F708958F929F92AF92BF92CF92DF929E
:10074000EF92FF926B017C010E9475034B015C01EB
:10075000C114D104E104F104B9F00E9475036819D1
:1007600079098A099B09683E73408105910580F3E8
:1007700021E0C21AD108E108F10888EE880E83E072
:10078000981EA11CB11CE4CFFF90EF90DF90CF909A
:10079000BF90AF909F908F900895AF92BF92CF92ED
:1007A000DF92EF92FF920F931F93CF93DF936C0131
:1007B0007B018B01040F151FEB015E01AE18BF0812
:1007C000C017D10759F06991D601ED91FC910190C4
:1007D000F081E02DC6011995892B79F7C501DF91CC
:1007E000CF911F910F91FF90EF90DF90CF90BF902E
:1007F000AF900895FC01538D448D252F30E0842F58
:1008000090E0821B930B541710F0CF960895019738
:100810000895FC01918D828D981761F0A28DAE0F25
:10082000BF2FB11D5D968C91928D9F5F9F73928FAC
:1008300090E008958FEF9FEF0895FC01918D828DD8
:10084000981731F0828DE80FF11D858D90E00895A5
:100850008FEF9FEF0895FC01918D228D892F90E0FD
:10086000805C9F4F821B91098F73992708958BE9B4
:1008700093E00E942B0421E0892B09F420E0822FD1
:100880000895FC01A48DA80FB92FB11DA35ABF4F25
:100890002C91848D90E001968F739927848FA6897F
:1008A000B7892C93A089B1898C91837080648C93D3
:1008B000938D848D981306C00288F389E02D808182
:1008C0008F7D80830895EF92FF920F931F93CF93B4
:1008D000DF93EC0181E0888F9B8D8C8D98131AC07B
:1008E000E889F989808185FF15C09FB7F894EE8962
:1008F000FF896083E889F9898081837080648083BF
:100900009FBF81E090E0DF91CF911F910F91FF9009
:10091000EF900895F62E0B8D10E00F5F1F4F0F73B1
:100920001127E02E8C8D8E110CC00FB607FCFACF6C
:10093000E889F989808185FFF5CFCE010E944104C5
:10094000F1CFEB8DEC0FFD2FF11DE35AFF4FF0823D
:100950009FB7F8940B8FEA89FB8980818062CFCFA3
:10096000CF93DF93EC01888D8823B9F0AA89BB89E6
:10097000E889F9898C9185FD03C0808186FD0DC0D1
:100980000FB607FCF7CF8C9185FFF2CF808185FFF2
:10099000EDCFCE010E944104E9CFDF91CF910895C0
:1009A00062E00C943F02CF93DF93C1E0D0E08BE98B
:1009B00093E00E942B04892B09F449C08BE993E052
:1009C0000E9409042091880330918903F901E754BA
:1009D000FB4F80839091B904933789F49091BA04C6
:1009E000943701F59091BB049037E1F49091BC04E9
:1009F0009D30C1F4D0930C05C0930B05D8CF92372E
:100A000089F49091BA04933769F49091BB049437B8
:100A100049F49091BC049D3029F4D0930E05C09305
:100A20000D05C5CF8D3049F430930A052093090593
:100A30001092890310928803BACF20353105C4F78C
:100A40002F5F3F4F3093890320938803B0CFDF910E
:100A5000CF9108950E94370481110E94D30480E051
:100A600090E0892B49F080E090E0892B29F00E94EA
:100A7000000081110E94000080E090E0892B49F085
:100A800080E090E0892B29F00E94000081110E94F3
:100A9000000080E090E0892B49F080E090E0892B15
:100AA00029F00E94000081110C9400000895CF935A
:100AB000DF93EC0188810E94110261E089810E942C
:100AC00011026F81788589859A850E941A0F0E948C
:100AD0009A0360E089810E9411026B857C858D8577
:100AE0009E850E941A0FDF91CF910C949A03CF93A9
:100AF000DF93EC0161E08A810E943F0261E088811E
:100B00000E943F0261E089810E943F0260E08A8189
:100B1000DF91CF910C94110270E060E0FC018081C4
:100B20000C947B0261E08091E6050E94110261E075
:100B30008091D3050E94110261E08091C0050E945E
:100B4000110261E08091AD050E94110261E0809187
:100B50009A050E94110288E295E00E948C0587E2C6
:100B600095E00C948C0561E0FC0180810C943F02BF
:100B7000809103060E94D0048091FD050E94D0045C
:100B8000809100060E94D0048091FA050E94D00452
:100B90008091F7050E94D00484EE95E00E947705CD
:100BA00081ED95E00E9477058EEB95E00E94770538
:100BB0008BEA95E00E94770588E995E00E94770529
:100BC00060E0809129050E943F0288E295E00E9442
:100BD000B305609121057091220577278091280542
:100BE0000E947B0287E295E00E94B3056FEF70E000
:100BF000809127050C947B02FC0101900020E9F70D
:100C00003197AF01481B590BBC018BE993E00C9461
:100C1000CD038F929F92AF92BF920F931F93CF936A
:100C2000DF93CDB7DEB7A1970FB6F894DEBF0FBE46
:100C3000CDBF19A2423008F44AE08E010F5D1F4F6C
:100C4000842E912CB12CA12CA50194010E940C0E94
:100C5000E62FB901CA01EA30F4F4E05DD801EE9361
:100C60008D01232B242B252B79F790E080E0109722
:100C700019F0CD010E94FC05A1960FB6F894DEBFD5
:100C80000FBECDBFDF91CF911F910F91BF90AF905D
:100C90009F908F900895E95CE1CF009711F00C943C
:100CA000FC0590E080E008958FE892E00E944D06F8
:100CB0008AE994E00E944D068AE493E00E944D0682
:100CC00020913804309139044CE0429FC001439F89
:100CD000900D1124865C9B4F0E944D068EE793E099
:100CE0000E944D0685E992E00C944D06CF93DF9368
:100CF0000E94FC05EC0184E992E00E94FC058C0F47
:100D00009D1FDF91CF9108958F929F92AF92BF92D6
:100D1000CF92DF92EF92FF920F931F93CF93DF93C7
:100D2000809103060E94D0048091FD050E94D004AA
:100D3000809100060E94D0048091FA050E94D004A0
:100D40008091F7050E94D00484EE95E00E9477051B
:100D500081ED95E00E9477058EEB95E00E94770586
:100D60008BEA95E00E94770588E995E00E94770577
:100D700060E0809129050E943F0288E295E00E9490
:100D8000B30587E295E00E94B3056FEF70E08091B4
:100D900027050E947B02609121057091220577272B
:100DA000809128050E947B02CAE2D5E009E315E0A4
:100DB00039E3C32E35E0D32E7801AA24A394B12CB5
:100DC000288130E0F901EA55FD4F8491F901E05A9C
:100DD000FD4F9490F901E65EFD4F8490811025C08F
:100DE0001A821982239683E1E80EF11CCC16DD06E7
:100DF00039F783E1E82E85E0F82E98E9A92E95E0F1
:100E0000B92EF701C190D1907F01F5E8CF16F3E03C
:100E1000DF0600F5D0E0C0E0CC16DD06F9F060E0BA
:100E2000C8010E9457052196F7CF81110E94AA019F
:100E3000E82DF0E0EE0FFF1FE453FE4FA591B491B3
:100E4000EC919E2269F2BA82A98261E0C7010E94F8
:100E50005705B6CF87E992E00E9476060D5E1F4FD8
:100E6000A016B10671F6DF91CF911F910F91FF90FF
:100E7000EF90DF90CF90BF90AF909F908F900895AC
:100E800080EF92E00C9476068AEF92E00C9476065E
:100E900085E093E00C94760683E193E00C9476066B
:100EA000CF92DF92EF92FF92CF93DF936C01990F75
:100EB000EE08FF08F7FE19C06DE28BE993E00E948F
:100EC0006304EC0166277727CB016C197D098E0935
:100ED0009F094AE00E9409068C0F9D1FDF91CF9168
:100EE000FF90EF90DF90CF9008954AE0C701B601E0
:100EF000DF91CF91FF90EF90DF90CF900C94090697
:100F00004F925F926F927F928F929F92AF92BF9219
:100F1000CF92DF92EF92FF920F931F93CF936B01CB
:100F20007C01742EAC019B010E946D10882399F006
:100F30008EE193E0CF911F910F91FF90EF90DF90A2
:100F4000CF90BF90AF909F908F907F906F905F9069
:100F50004F900C94FC0546015701E894B7F82FEF29
:100F60003FEF4FE75FE7C501B4010E946D108111AB
:100F70000DC02FEF3FEF4FE75FE7C501B4010E94BF
:100F8000A30E18161CF482E293E0D4CF2FEF3FEFAC
:100F90004FE75FE4C701B6010E94FB0F18161CF46F
:100FA00086E293E0C7CF2FEF3FEF4FE75FECC7013B
:100FB000B6010E94A30E87FDF3CF20E030E0A90127
:100FC000C701B6010E94A30E10E000E087FF0AC02F
:100FD0006DE28BE993E00E9463048C01F7FAF094D0
:100FE000F7F8F094C0E060E070E080E09FE37C16EA
:100FF00041F020E030E040E251E40E94A80ECF5FD3
:10100000F6CFA70196010E94370E2B013C010E94EA
:101010001A0F4B015C014AE00E9409067C01E00EB8
:10102000F11ECC23C1F1C501B4010E94490F9B01FF
:10103000AC01C301B2010E94360E4B015C016EE2AD
:101040008BE993E00E946304E80EF91EC15018F189
:1010500020E030E040E251E4C501B4010E940010FC
:101060002B013C010E941A0F4B01B12CA12C4AE02C
:10107000C501B4010E940906E80EF91EC501B401BC
:101080000E94490F9B01AC01C301B2010E94360EC0
:101090004B015C01DBCFC701CF911F910F91FF90F6
:1010A000EF90DF90CF90BF90AF909F908F907F9008
:1010B0006F905F904F900895BF92CF92DF92EF9222
:1010C000FF920F931F93CF93DF938AE293E00E94E6
:1010D0004D0680911D0590911E05892B09F047C092
:1010E00010E000E064E670E080E090E00E949A0387
:1010F00085E992E00E944D06C8010E9450078AE4EB
:1011000093E00E944D0680E393E00E944D068AE43E
:1011100093E00E944D06809129050E945203D0E081
:10112000C0E059E1E52EF12C809129050E9452037F
:10113000C80FD91F81E0E81AF108B1F7BE01DD0F31
:10114000880B990B0E944B0F20E030E048EC51E4F3
:101150000E94A80E42E00E9480078EE793E00E9462
:101160004D060F5F1F4F0A30110509F0BBCF80916C
:101170001D0590911E059C01215031092530310536
:1011800008F068C0880F991FFC01EF5EFA4F0081DC
:101190001181EE24E394F12C43E1B42E80911F05DC
:1011A00090912005081719070CF054C020911D05D7
:1011B00030911E0521503109B29EC001B39E900DA1
:1011C000112460E0875C9A4F0E94570564E070E04C
:1011D00080E090E00E949A0385E992E00E944D062B
:1011E000C7010E9450078AE493E00E944D06C8019F
:1011F0000E9450078AE493E00E944D0680912905E1
:101200000E94520389E1C82ED12CD0E0C0E0809129
:1012100029050E945203C80FD91F81E0C81AD108BE
:10122000B1F7BE01DD0F880B990B0E944B0F20E038
:1012300030E048EC51E40E94A80E42E00E94800792
:101240008EE793E00E944D060F5F1F4F8FEFE81A65
:10125000F80AA4CF84E393E00E944D0668EE73E0A1
:1012600080E090E00E949A0388E295E00E948C055D
:1012700087E295E0DF91CF911F910F91FF90EF9062
:10128000DF90CF90BF900C948C05CF92DF92EF92BD
:10129000FF92CF93DF938FB7F894C0908F03D090D5
:1012A0009003E0909103F09092038FBF8091970399
:1012B00090919803A0919903B0919A0388519C4F03
:1012C000AF4FBF4F8C159D05AE05BF0550F40E9472
:1012D0005406C0929703D0929803E0929903F0923B
:1012E0009A038091930390919403A0919503B091F8
:1012F0009603805D9A48AF4FBF4F8C159D05AE0594
:10130000BF0560F41092390410923804C092930320
:10131000D0929403E0929503F09296038091380462
:1013200090913904019741F4C0929303D0929403B1
:10133000E0929503F09296038091090590910A0539
:10134000892B09F407C143E050E069E373E089EBBE
:1013500094E00E947210892B11F40E94540643E01D
:1013600050E06DE373E089EB94E00E947210892BEA
:1013700009F089C061E473E089EB94E00E94E10D1B
:101380002FE035E03F932F9324E433E03F932F93F6
:101390009F938F930E948F100F900F900F900F903C
:1013A0000F900F9080910F0590911005029720F0FB
:1013B0001092100510920F0561E473E090E080E058
:1013C0000E94E10D28E334E0C4E4D3E0790142E077
:1013D000E40EF11C0097C1F027523F4F3F932F932B
:1013E000DF93CF939F938F930E948F1061E473E0FC
:1013F00090E080E00E94E10D0F900F900F900F9011
:101400000F900F909701E2CFE3E1F5E084E893E0DD
:10141000219131912538334024F0DF0112978D93CB
:101420009C9325E0E332F20799F780912105909192
:1014300022058F3F910539F034F08FEF90E09093C3
:1014400022058093210587E493E00E944D06C1E1C7
:10145000D5E08AE493E00E944D06899199910E941B
:10146000500745E0C332D407A1F78EE793E00E940E
:101470004D0685E992E00E944D0682E090E090934F
:1014800039048093380443E050E06CE473E089EB66
:1014900094E00E947210892B19F580E593E00E9478
:1014A0004D0660910F057091100590E080E04AE0D4
:1014B0000E940906C1E1D5E08AE493E00E944D064E
:1014C000899199910E94500785E0C332D807A1F70E
:1014D0008EE793E00E944D0685E992E00E944D065A
:1014E00043E050E065E573E089EB94E00E94721000
:1014F000892B31F484E090E0909339048093380490
:1015000080910B0590910C05019781F4109239049C
:101510001092380489E593E00E944D0685E992E037
:101520000E944D0610920C0510920B0580910D053E
:1015300090910E05019751F486E090E09093390464
:101540008093380410920E0510920D0510920A0532
:1015500010920905DF91CF91FF90EF90DF90CF902F
:1015600008951F920F920FB60F9211242F933F935D
:101570008F939F93AF93BF9380918F03909190032C
:10158000A0919103B091920330918A0323E0230F3D
:101590002D3758F50196A11DB11D20938A03809324
:1015A0008F0390939003A0939103B0939203809143
:1015B0008B0390918C03A0918D03B0918E030196C3
:1015C000A11DB11D80938B0390938C03A0938D0379
:1015D000B0938E03BF91AF919F918F913F912F91C7
:1015E0000F900FBE0F901F90189526E8230F0296BC
:1015F000A11DB11DD2CF1F920F920FB60F921124D1
:101600000BB60F922F933F934F935F936F937F93FC
:101610008F939F93AF93BF93EF93FF938BE993E0E7
:101620000E944104FF91EF91BF91AF919F918F91E3
:101630007F916F915F914F913F912F910F900BBED2
:101640000F900FBE0F901F9018951F920F920FB61C
:101650000F9211240BB60F922F938F939F93EF93BA
:10166000FF93E091AB03F091AC038081E091B10373
:10167000F091B20382FD1DC090818091B4038F5F11
:101680008F732091B503821741F0E091B403F0E02D
:10169000E556FC4F958F8093B403FF91EF919F9196
:1016A0008F912F910F900BBE0F900FBE0F901F9038
:1016B00018958081F2CFEF920F93CF93DF93EC01D7
:1016C00008832983EA824B835C836D837E838DEC60
:1016D0009CECACECBDE38F839887A987BA879A010D
:1016E000AB0160E070E68AE697E40E94A80E2DEC5C
:1016F0003CEC4CEC5DE30E94360E6B877C878D875B
:101700009E872DEC3CEC4CEC5DE30E94370E9B0178
:10171000AC0160E070E080E89FE30E94A80E6F8754
:10172000788B898B9A8B20E030E042E553E40E946D
:10173000FB0F18162CF489EC92E00E947606FFCF7E
:10174000DF91CF910F91EF900895EF920F93CF9388
:10175000EBE9F3E01382128288EE93E0A0E0B0E0C0
:1017600084839583A683B78381E892E09183808305
:1017700085EC90E09587848784EC90E09787868756
:1017800080EC90E0918B808B81EC90E0938B828B4E
:1017900082EC90E0958B848B86EC90E0978B868B27
:1017A000118E128E138E148E83E080930306C2E096
:1017B000C09300068EE08093FD058FE08093FA05CC
:1017C00082E18093F70588E1E82E0CE12AE140E010
:1017D00050E068EC74E484EE95E00E945B0B9EE1BF
:1017E000E92E02E224E240E050E068EC74E481ED8E
:1017F00095E00E945B0B26E2E22E07E326E340E041
:1018000050E068EC74E48EEB95E00E945B0B38E3EB
:10181000E32E0DE32CE340E050E068EC74E48BEA47
:1018200095E00E945B0B4EE3E42E00E32EE240E0E5
:1018300050E068EC74E488E995E00E945B0B83E17A
:10184000EEEBF5E0A9E3B5E001900D928A95E1F7A2
:1018500083E1EBEAF5E0ACE4B5E001900D928A9506
:10186000E1F783E1E1EDF5E0AFE5B5E001900D9240
:101870008A95E1F783E1E8E9F5E0A2E7B5E00190B8
:101880000D928A95E1F783E1E4EEF5E0A5E8B5E095
:1018900001900D928A95E1F7EAE2F5E08091000669
:1018A00090910106A091020680839183A28380918A
:1018B000FA059091FB05A091FC0583839483A58391
:1018C0008091FD059091FE05A091FF058683978389
:1018D000A0878091F7059091F805A091F90581877F
:1018E0009287A3878091030690910406A091050634
:1018F00084879587A6878FE380932905C093040288
:101900008CE28093280589E08093270580E6E5E056
:10191000F2E0AAE3B4E001900D928A95E1F7CF914D
:101920000F91EF900895789484B5826084BD84B55A
:10193000816084BD85B5826085BD85B5816085BDCA
:1019400080916E00816080936E0010928100809182
:10195000810082608093810080918100816080930A
:101960008100809180008160809380008091B1002F
:1019700084608093B1008091B00081608093B0005A
:1019800080919100826080939100809191008160AC
:10199000809391008091900081608093900080916D
:1019A000A10082608093A1008091A100816080935A
:1019B000A1008091A00081608093A000809121010E
:1019C00082608093210180912101816080932101B7
:1019D0008091200181608093200180917A00846051
:1019E00080937A0080917A00826080937A0080915F
:1019F0007A00816080937A0080917A008068809379
:101A00007A001092C1004EE150E06EE573E08AE981
:101A100094E00E9480101092B80481E090E09093CE
:101A20003904809338049093100580930F05E0915A
:101A3000AB03F091AC0382E08083E091A703F091C7
:101A4000A8031082E091A903F091AA0380E18083AA
:101A50001092B303E091AF03F091B00386E080836E
:101A6000E091AD03F091AE03808180618083E091CD
:101A7000AD03F091AE03808188608083E091AD0377
:101A8000F091AE03808180688083E091AD03F09196
:101A9000AE0380818F7D808382E092E09093240565
:101AA0008093230580E092E090932605809325059E
:101AB000C7E0D0E005E010E043E0E42EF12CCC24B8
:101AC000C394D12CE0913804F0913904E830F10549
:101AD00028F58827E159F24F8F4F0C942E0E770D81
:101AE0008C0D910D8C0DAF0D8C0DDA0D8C0DE091E0
:101AF0000F05F0911005EE0FFF1FED5DFA4F80818D
:101B00009181DC01ED91FC910190F081E02D19951E
:101B1000D0923904C09238040E9445090E942A05D7
:101B2000D1CFE0910F05F0911005EE0FFF1FED5D95
:101B3000FA4F80819181DC01ED91FC910280F3816B
:101B4000E02D1995F0923904E092380481E793E092
:101B50000E944D0685E992E00E944D06DDCFE0919E
:101B60000F05F0911005EE0FFF1FED5DFA4F80811C
:101B70009181DC01ED91FC910480F581E02D1995B6
:101B8000109339040093380488E793E00E944D06CF
:101B9000E0910F05F0911005EE0FFF1FED5DFA4F7C
:101BA00080819181DC01ED91FC910680F781E02D2F
:101BB0001995B2CFD0933904C093380480E893E0EC
:101BC000C7CF46E056E00C94E50DFA01A191B08133
:101BD000009719F41097E1F0CD01DC01CD010D90D3
:101BE000002011F4C00113C0FB012191222319F040
:101BF0002015D9F7F3CFFB012191201519F41E927E
:101C0000119606C02223C1F70D900020A1F7D00144
:101C1000FA01A193B0830895A1E21A2EAA1BBB1B5F
:101C2000FD010DC0AA1FBB1FEE1FFF1FA217B307A8
:101C3000E407F50720F0A21BB30BE40BF50B661FBE
:101C4000771F881F991F1A9469F760957095809582
:101C500090959B01AC01BD01CF010895EE0FFF1FD0
:101C6000881F8BBF0790F691E02D19945058BB2721
:101C7000AA270E944E0E0C94C10F0E94B30F38F099
:101C80000E94BA0F20F039F49F3F19F426F40C9407
:101C9000B00F0EF4E095E7FB0C94AA0FE92F0E9419
:101CA000D20F58F3BA17620773078407950720F01D
:101CB00079F4A6F50C94F40F0EF4E0950B2EBA2FE0
:101CC000A02D0B01B90190010C01CA01A001112442
:101CD000FF27591B99F0593F50F4503E68F11A16EE
:101CE000F040A22F232F342F4427585FF3CF46957F
:101CF00037952795A795F0405395C9F77EF41F16A1
:101D0000BA0B620B730B840BBAF09150A1F0FF0F6A
:101D1000BB1F661F771F881FC2F70EC0BA0F621F56
:101D2000731F841F48F4879577956795B795F79546
:101D30009E3F08F0B0CF9395880F08F09927EE0FDB
:101D40009795879508950E94860F08F481E008957D
:101D50000E94BC0E0C94C10F0E94BA0F58F00E9452
:101D6000B30F40F029F45F3F29F00C94AA0F5111F2
:101D70000C94F50F0C94B00F0E94D20F68F39923C6
:101D8000B1F3552391F3951B550BBB27AA27621777
:101D90007307840738F09F5F5F4F220F331F441F84
:101DA000AA1FA9F335D00E2E3AF0E0E832D09150B8
:101DB0005040E695001CCAF72BD0FE2F29D0660FA5
:101DC000771F881FBB1F261737074807AB07B0E8E8
:101DD00009F0BB0B802DBF01FF2793585F4F3AF0EE
:101DE0009E3F510578F00C94AA0F0C94F50F5F3FBD
:101DF000E4F3983ED4F3869577956795B795F79574
:101E00009F5FC9F7880F911D9695879597F908955B
:101E1000E1E0660F771F881FBB1F621773078407F7
:101E2000BA0720F0621B730B840BBA0BEE1F88F706
:101E3000E09508950E94DA0F88F09F5798F0B92F27
:101E40009927B751B0F0E1F0660F771F881F991FEF
:101E50001AF0BA95C9F714C0B13091F00E94F40F8E
:101E6000B1E008950C94F40F672F782F8827B85F9E
:101E700039F0B93FCCF3869577956795B395D9F747
:101E80003EF490958095709561957F4F8F4F9F4F51
:101E90000895E89409C097FB3EF49095809570955D
:101EA00061957F4F8F4F9F4F9923A9F0F92F96E9A6
:101EB000BB279395F695879577956795B795F1111B
:101EC000F8CFFAF4BB0F11F460FF1BC06F5F7F4FB8
:101ED0008F4F9F4F16C0882311F096E911C07723CA
:101EE00021F09EE8872F762F05C0662371F096E8D3
:101EF000862F70E060E02AF09A95660F771F881FA2
:101F0000DAF7880F9695879597F90895990F000845
:101F1000550FAA0BE0E8FEEF16161706E807F907BB
:101F2000C0F012161306E407F50798F0621B730B56
:101F3000840B950B39F40A2661F0232B242B252BD7
:101F400021F408950A2609F4A140A6958FEF811D7A
:101F5000811D089597F99F6780E870E060E008951B
:101F60009FEF80EC089500240A94161617061806B1
:101F70000906089500240A9412161306140605068D
:101F80000895092E0394000C11F4882352F0BB0F1E
:101F900040F4BF2B11F460FF04C06F5F7F4F8F4F81
:101FA0009F4F089557FD9058440F551F59F05F3FBC
:101FB00071F04795880F97FB991F61F09F3F79F06B
:101FC00087950895121613061406551FF2CF4695ED
:101FD000F1DF08C0161617061806991FF1CF86956F
:101FE0007105610508940895E894BB276627772753
:101FF000CB0197F908950E94860F08F48FEF08959A
:102000000E9413100C94C10F0E94B30F38F00E946D
:10201000BA0F20F0952311F00C94AA0F0C94B00F76
:1020200011240C94F50F0E94D20F70F3959FC1F309
:10203000950F50E0551F629FF001729FBB27F00D76
:10204000B11D639FAA27F00DB11DAA1F649F6627CB
:10205000B00DA11D661F829F2227B00DA11D621F1A
:10206000739FB00DA11D621F839FA00D611D221FD4
:10207000749F3327A00D611D231F849F600D211DB8
:10208000822F762F6A2F11249F5750409AF0F1F03B
:1020900088234AF0EE0FFF1FBB1F661F771F881FA4
:1020A00091505040A9F79E3F510580F00C94AA0F23
:1020B0000C94F50F5F3FE4F3983ED4F38695779543
:1020C0006795B795F795E7959F5FC1F7FE2B880F4A
:1020D000911D9695879597F908950E94860F880B14
:1020E000990B0895FB01DC014150504030F08D9177
:1020F0000190801919F40020B9F7881B990B0895F5
:10210000FB01DC014150504048F001900D9200204D
:10211000C9F701C01D9241505040E0F70895CF9398
:10212000DF93CDB7DEB72E970FB6F894DEBF0FBEA4
:10213000CDBF85E08C838C899D899A838983AE018C
:10214000485E5F4F6E897F89CE0101960E945B12C7
:102150002E960FB6F894DEBF0FBECDBFDF91CF91A4
:10216000089520FD09C0FC0123FD05C022FF02C027
:102170007383628351834083089544FD17C046FDF5
:102180001DC0DB01FC01AA0FBB1FEE1FFF1F109437
:10219000D1F76A0F7B1F8E1F9F1F660F771F881F47
:1021A000991F620F711D811D911D089533E0660F07
:1021B000771F881F991F3150D1F7F3CF34E0F7CF45
:1021C0000F931F93CF93DF938C01C8010E94881354
:1021D000EC0197FD08C00E947413892BB1F7B80178
:1021E000CE010E94C413CE01DF91CF911F910F91B8
:1021F00008958F929F92AF92BF92EF92FF920F93AA
:102200001F93CF93DF938C01D62F7A01B22E0E94B9
:1022100088139C0133272B32310529F02D323105EB
:10222000A9F46894B7F8D15061F480E0DF91CF91C0
:102230001F910F91FF90EF90BF90AF909F908F9064
:102240000895C8010E94881397FDEFCFCB2DCD7F55
:102250002B2D2073F9F48033E9F4AA24AA94AD0E4F
:1022600089F0C8010E94881397FD0CC0282F2F7D8C
:10227000283561F4C264D25029F0C8010E94881345
:1022800097FF08C0812C912C54011BC0B6FE2BC0B7
:10229000C260DA2D812C912C540120ED280F2830BA
:1022A00028F1C4FD09C02A3008F1C6FF05C02F7D02
:1022B0003FEE320F3630C8F0B8010E94C413C1FFA0
:1022C000B4CFC7FF08C0B094A09490948094811CB0
:1022D000911CA11CB11C2C2FB501A401C7010E94A7
:1022E000B11081E0A3CFC261D4CF27504C2FC501DC
:1022F000B4010E94BD104B015C01C260D15009F3D2
:10230000C8010E94881397FFC8CFD9CF7F928F92C0
:102310009F92AF92BF92CF92DF92EF92FF920F9374
:102320001F93CF93DF93CDB7DEB7A0970FB6F89486
:10233000DEBF0FBECDBF5C01962E7A01CE010196A5
:102340006C0180E2F60111928A95E9F7F501B381FB
:10235000890130E020E0712C812CA0E041E050E0C8
:10236000F801B3FD8591B3FF8191982F8F01811101
:1023700017C010E000E0C801A0960FB6F894DEBFC9
:102380000FBECDBFDF91CF911F910F91FF90EF90C6
:10239000DF90CF90BF90AF909F908F907F900895E7
:1023A0008E3519F42115310541F1A21713064CF4AD
:1023B0008D3549F18D3229F4811006C0882483942B
:1023C0001DC0882009F464C0E92FE695E695E695DE
:1023D000EC0DFD2DF11D892F8770BA0101C0660F2C
:1023E0008A95EAF78081682B6083791651F09715FA
:1023F00010F49F5FE9CF9150E7CFA1E02F5F3F4FEF
:10240000AFCF812CFBCF882019F08E8180628E8324
:10241000AA2359F0F6019E012F5D3F4F80818095E0
:1024200080833196E217F307C9F788248394C501A6
:102430000E94881397FD16C0E82FE695E695E6956D
:10244000EC0DFD2DF11D208130E0AC0147705527CA
:1024500002C0359527954A95E2F720FD06C0B501E3
:102460000E94C413882069F084CFE114F10429F09C
:10247000F7018083C70101967C019A94812C911009
:10248000D6CFE114F10409F476CFF701108273CFAF
:10249000E82FE695E695E695EC0DFD2DF11D982FBC
:1024A0009770BA0101C0660F9A95EAF79081692B7F
:1024B0006083782EA3CF5F926F927F928F929F92CC
:1024C000AF92BF92CF92DF92EF92FF920F931F9342
:1024D000CF93DF936C01EB015A01FC011782168246
:1024E000512CF601E380FE01E3FC8591E3FE81912E
:1024F000182FEF018823E9F090E00E947413892BD4
:1025000021F0C6010E94E010ECCF153241F4FE012B
:10251000E3FC1591E3FE1191EF01153269F4C60158
:102520000E94881397FD8EC01817D9F2B6010E9439
:10253000C413852D90E08AC000E01A3231F4E3FC28
:102540001591E3FE1191EF0101E0F12C20ED210F37
:102550002A3048F101FF37C0FF2059F31836B1F196
:102560001C3609F43DC0112321F3612F70E080EC8B
:1025700091E00E947D13892BE1F2912C812C00FDCA
:1025800006C0F50180809180C50102965C011E366F
:1025900079F5F6014681578170E060E0202FC40193
:1025A0000E94B1109ECF02606F2D70E090E080E03D
:1025B00040E20E94BD10F62EFE01E3FC1591E3FE01
:1025C0001191EF01C3CFFF24FA94C8CFFE01E3FCC1
:1025D0001591E3FE1191EF01183609F0C4CF0860A0
:1025E0000460FE01E3FC1591E3FE1191EF01BBCF06
:1025F0001336C1F401FD02C0FF24F394C6010E940A
:10260000881397FD1FC08114910429F0F401808381
:10261000C40101964C01FA94F110F0CF00FD61CF96
:1026200053945FCF1B3511F59E01A4016F2DC60198
:102630000E948611EC01892B89F7F6018381807352
:1026400009F477CF8FEF9FEF511073CFDF91CF91C8
:102650001F910F91FF90EF90DF90CF90BF90AF90C0
:102660009F908F907F906F905F900895C6010E9419
:10267000E01097FDE7CF1F36A9F130F4143641F092
:10268000193639F0006405C01337B9F01537D1F7A2
:102690000062202FA4016F2DC6010E94F910811144
:1026A000BDCFCBCF8114910429F0F4016082C40125
:1026B00001964C01FA94FF2071F0C6010E94881324
:1026C0003C0197FD08C00E947413892B59F3B60191
:1026D000C3010E94C4138114910409F49FCFF40133
:1026E00010829CCF0061D5CF91110C94DC13803205
:1026F00019F089508550C8F70895FC010590061619
:1027000021F00020D9F7C00108953197CF01089535
:10271000CF93DF93EC012B8120FF1AC026FF0CC062
:102720002F7B2B838E819F8101969F838E838A814D
:1027300090E0DF91CF91089522FF18C0E881F981E0
:102740008081082E000C990B009729F420622B83BE
:102750008FEF9FEFEECF3196F983E8832E813F8193
:102760002F5F3F4F3F832E839927E3CFEA85FB8579
:10277000199597FFF3CF2B81019621F080E2822BF0
:102780008B83E6CF80E1FBCFFB01238120FF11C0CB
:1027900026FD0FC08F3F980771F082832F7D206444
:1027A0002383268137812150310937832683992756
:1027B00008958FEF9FEF0895992788270895F8943B
:0227C000FFCF49
:1027C200690275020153544F5050494E47000000B0
:1027D2000053544F505045440000000000434F4EF8
:1027E2004649475552494E4700434F4E4649475581
:1027F20052454400005354415254494E4700000090
:1028020000535441525445440000000000524553C5
:102812004554494E47000000005245534554454433
:1028220000000000000000000092058406B8055C6C
:1028320008000000004C074807440740070000005A
:10284200006304CD03FA03B0042B0409041D0449F8
:10285200445309000D0A00455252206461646F73AB
:1028620020696E636F727265746F73206EC3A36F9B
:102872002076616920726F64617220706F6C617280
:10288200697A61646F726573004552524F523A2001
:10289200535445505F4652455155454E4359206564
:1028A20078636565647320323130206B487A210089
:1028B200305F7374617274656400305F7374617247
:1028C20074696E6700305F636F6E666967757269FF
:1028D2006E6700305F73746F7070696E67006E614F
:1028E2006E00696E66006F7666004441540A0D0000
:1028F2004E614E00454E440D006964730063666785
:1029020000092000256400434647090063757200F0
:102912004355520900737472005354500D00454CD4
:1029220041425F46495645504F4C4152495A4552E1
:10293200004346474F4B0D005354524F4B0A0D0074
:082942005253544F4B0D0000ED
:00000001FF
